:04000000020029329F
:01000B0032C2
:0100130032BA
:01001B0032B2
:030023000201C413
:0300D00002002605
:030026000200D302
:2000D3001200F312020B90033075F08012016F90033475F08012016F7582FF1202E180FE28
:070330005B324A005B48004C
:20008200750B30750C31750D32750E33750F3475103575113675123775133875143975159A
:1300A20041751642751743751844751945751A46751B0065
:2000F300438920758DF5438780438840759850D2AFD2AC22AD82AE83AFF08D088E098F0A73
:20011300ED4E7009750837750903750A807E007F00850882850983850AF0C007C0061202A7
:20013300F8A982AD83D006D0078E008F04C3E899EC9D5027EE2508FBEF3509FCAD0A8B8244
:200153008C838DF0120310F582C007C00612019DD006D0070EBE00B90F80B622AD82AE832E
:20017300AFF0ED4E700990035275F08002010775821BC007C006C00512019DD005D006D0B6
:20019300078D828E838FF002010785829910990280FB22E582FFC4540F240BF98782C0072F
:2001B30012019DD00753070FEF240BF9878202019DC020C0E0C0F0C082C083C007C006C07A
:2001D30005C004C003C002C001C000C0D075D000109802800685998212019DD0D0D000D0A8
:1801F30001D002D003D004D005D006D007D083D082D0F0D0E0D02032C1
:200337004572726F72207072696E7420737472696E67206973206E756C6C004572726F72B7
:150357002065736361706520636F6465206973206E756C6C006E
:1B00B50075210075225575235575240075252A7526AA7527007528557529559E
:20020B0043B07022AD82AE83AFF074022DFAE43EFB8F048A828B838CF0120310F59074014D
:20022B002DFAE43EFB8F048A828B838CF0120310F5A08D828E838FF0120310FD53B0E35392
:20024B000503ED2D25E042B022AF8253B0DF7582FFC0071202E190002175F04012020F53C7
:20026B00B0EF7580AA43B0107582FF1202E190002475F04012020F53B0EF75805543B0108C
:20028B007582FF1202E190002775F04012020F53B0EF7580A043B0107582FF1202E1852AC5
:2002AB0082852B83852CF012020FD00753B0EF8F8043B0107582FF1202E102020B12020FC2
:2002CB0053B09FAF80C00712020BD0078F822212020F53B0CF22AF827E00BEFF00500D7DF5
:0D02EB0000C3ED9F50030D80F80E80EE2241
:06005800E478FFF6D8FD7C
:200036007900E94400601B7A0090036C780175A000E493F2A308B8000205A0D9F4DAF27501
:02005600A0FF09
:20005E007800E84400600A790175A000E4F309D8FC7800E84400600C7900900001E4F0A3A0
:04007E00D8FCD9FAD7
:1802F800AA82AB831203106003A380F8C3E5829AF582E5839BF5832219
:0D00290075812C12032CE582600302002675
:1C03100020F71430F6148883A88220F507E6A88375830022E280F7E49322E022FC
:04032C0075820022B4
:00000001FF
